:0E2F63006375725F6D6F64653A2564200A0025
:1000260041020500410204004401F0400000004482
:1000360001F4000000004401F83F8000004401FC88
:0B004600000000004402000000000069
:102EA900E4900135F07B017A017935FF122DB6E402
:062EB900FD7F01022CF375
:102DE9009001357440F0A37401F0A312098A00011F
:102DF900C20090013C7401F0E4A3F07B017A0179EF
:102E0900357F011221CA7D017F01122D7553A23F21
:012E19002296
:102F3400900204E0FFA3E06F60037F01227F002280
:102BCD009001357456F0A37412F0A37403F0E4A3CE
:102BDD00F0900138E0FFD3941050307E0090013515
:102BED00E0FDA3E0FBA3E090013DF0122ACB7F288E
:102BFD00122F44122F34EF600A900205E090020468
:0E2C0D00F08008900138E004F080C6022E1A14
:1020340090013512097E9001397464F09001F8E042
:10204400FCA3E0FDA3E0FEA3E0FF9001BB12097E28
:10205400900135E0FCA3E0FDA3E0FEA3E0FF9001C6
:10206400BF12097E9001C37401F0A37401F0A3743C
:102074003AF0A37401F0A37401F0A3743BF0A374C9
:1020840001F0A37401F0A3743CF09001F4E0FCA30C
:10209400E0FDA3E0FEA3E0FF121A51900139E0FD38
:1020A4007C00A3E0FBA3E0900142F090013CE090AF
:1020B4000143F0E4FFFE122A577F05122F449001DA
:1020C400F4E0FCA3E0FDA3E0FEA3E0FF9001F0E058
:1020D400F8A3E0F9A3E0FAA3E0FB12008D9001F469
:1020E40012097EE4FFFE7DB47C439001F4E0F8A382
:1020F400E0F9A3E0FAA3E0FB120324400C9001F002
:1021040012098AC00000008024E4FFFEFDFC900157
:10211400F4E0F8A3E0F9A3E0FAA3E0FB12032460DF
:1021240002500A9001F012098A4000000090013523
:10213400E0F8A3E0F9A3E0FAA3E0FBC000C001C00B
:1021440002C0037F0A7ED77D237C3C9001F0E0F837
:10215400A3E0F9A3E0FAA3E0FB12017ED003D002CE
:10216400D001D00012008D90013512097EE4FFFEEB
:102174007D807C3F900135E0F8A3E0F9A3E0FAA369
:10218400E0FB120324400C9001F012098ABF800086
:10219400008024E4FFFEFDFC900135E0F8A3E0F9A3
:1021A400A3E0FAA3E0FB1203246002500A9001F0BA
:1021B40012098A3F800000122F34EF600890020554
:0521C400E0900204F0B0
:0121C90022F3
:05264200900135EFF0EE
:10264700A312098A3F800000E490013AF0A3F090BA
:10265700013AF0A3F0900136E0FCA3E0FDA3E0FE11
:10266700A3E0FF90014012097E90013AE0FFA3E04A
:10267700900144CFF0A3EFF0E4A3F09001FCE0FC5D
:10268700A3E0FDA3E0FEA3E0FF1215D8900135E01B
:10269700FF122F44122F34EF600A900205E09002D8
:1026A70004F0801F90013BE004F0700690013AE0CF
:1026B70004F0C390013BE0941090013AE0648094E9
:1026C7008040929001FCE0FCA3E0FDA3E0FEA3E0C4
:1026D700FFE4FBFA79A0784112008D9001FC120902
:1026E7007E90013AE4F0A3740FF0900136E0FCA36A
:1026F700E0FDA3E0FEA3E0FF90014012097E9001F8
:102707003AE0FFA3E0900144CFF0A3EFF0A37401F8
:10271700F09001FCE0FCA3E0FDA3E0FEA3E0FF12C4
:1027270015D8900135E0FF122F44122F34EF600ABD
:10273700900205E0900204F0801690013BE024FF30
:10274700F090013AE034FFF0C3E064809480509A3F
:102757009001FCE0FCA3E0FDA3E0FEA3E0FFE4FBA7
:10276700FA79A0784112008D9001FC12097EE4FFEE
:10277700FE7DB47C439001FCE0F8A3E0F9A3E0FA06
:10278700A3E0FB120324400A9001FC12098A00000F
:02279700000040
:01279900221D
:0524E300900135EFF04F
:1024E800A312098A3F800000E490013AF0A3F0901B
:1024F800013AF0A3F0900136E0FCA3E0FDA3E0FE72
:10250800A3E0FF90014012097E90013AE0FFA3E0AA
:10251800900144CFF0A3EFF0E4A3F0900200E0FCB8
:10252800A3E0FDA3E0FEA3E0FF1215D8900135E07B
:10253800FF122F44122F34EF600A900205E0900238
:1025480004F0801F90013BE004F0700690013AE02F
:1025580004F0C390013BE0940890013AE064809451
:10256800804092900200E0FCA3E0FDA3E0FEA3E01F
:10257800FFE4FBFA7920784112008D9002001209DD
:102588007E90013AE4F0A37410F0900136E0FCA3C9
:10259800E0FDA3E0FEA3E0FF90014012097E900158
:1025A8003AE0FFA3E0900144CFF0A3EFF0A3740159
:1025B800F0900200E0FCA3E0FDA3E0FEA3E0FF1220
:1025C80015D8900135E0FF122F44122F34EF600A1E
:1025D800900205E0900204F0801D90013BE024FF8A
:1025E800F090013AE034FFF0C3A3E0940890013A78
:1025F800E0648094805093900200E0FCA3E0FDA387
:10260800E0FEA3E0FFE4FBFA7920784112008D9008
:10261800020012097EE4FFFE7DB47C43900200E0D4
:10262800F8A3E0F9A3E0FAA3E0FB120324400A9020
:09263800020012098A00000000F2
:012641002276
:10005E0030B220900205E004F0E075F00984AFF0B4
:10006E00EFF07BFF7A2F7963900108E4F0A3EFF0B5
:04007E001211C02279
:1029280053B1FB53B2FB122EA9122DE9D2AF7F107F
:102938007E00122E43120056900205E0B4090050A2
:102948006F902950F828287302296B0229750229EB
:102958007F02298F0229970229A40229AB0229AFF5
:102968000229B6E490013DF0FB7DFF8013E490015D
:102978003DF07BFFFD800990013D74FFF0E4FBFD15
:10298800FFFE122ACB802C7FCD7ECC7D4C80067F2B
:10299800007E007D807C3F12203480177F14122631
:1029A8004280107F1480027F1E1224E3800580007D
:1029B800122BCD900205E0900204F07F14122F44F0
:0329C800022940A1
:101DE000EFD3940740037FFF22120751FED39403E1
:101DF00040037FFF22EF7041EE700B90000112074D
:101E00006AF452935294120751B4010B90000112DC
:101E1000076A4293F45294120751FEB4020A9000EA
:101E20000112076A42934294EEB4030D900001122E
:101E3000076AFEF45293EE4294EF64017043120776
:101E400051FE700B90000112076AF452915292EE0B
:101E5000B4010B90000112076A4291F452921207EA
:101E600051B4020A90000112076A4291429212078D
:101E700051B4030D90000112076AFEF45291EE4234
:101E800092EF64027043120751FE700B9000011232
:101E9000076AF452955296EEB4010B9000011207B6
:101EA0006A4295F45296120751B4020A9000011248
:101EB000076A42954296120751B4030D9000011231
:101EC000076AFEF45295EE4296EF640370431207E0
:101ED00051FE700B90000112076AF452B152B2EE3B
:101EE000B4010B90000112076A42B1F452B212071A
:101EF00051B4020A90000112076A42B142B21207BD
:101F000051B4030D90000112076AFEF452B1EE4283
:101F1000B2EF64047043120751FE700B900001127F
:101F2000076AF452B352B4EEB4010B9000011207E9
:101F30006A42B3F452B4120751B4020A900001127B
:101F4000076A42B342B4120751B4030D9000011264
:101F5000076AFEF452B3EE42B4EF64057043120711
:101F600051FE700B90000112076AF452C952CAEE7A
:101F7000B4010B90000112076A42C9F452CA120759
:101F800051B4020A90000112076A42C942CA1207FC
:101F900051B4030D90000112076AFEF452C9EE42DB
:101FA000CAEF64067043120751FE700B90000112D5
:101FB000076AF452CB52CCEEB4010B900001120729
:101FC0006A42CBF452CC120751B4020A90000112BB
:101FD000076A42CB42CC120751B4030D90000112A4
:101FE000076AFEF452CBEE42CCEF6407704312074F
:101FF00051FF700B90000112076AF452E152E2EFB8
:10200000B4010B90000112076A42E1F452E2120798
:1020100051B4020A90000112076A42E142E212073B
:1020200051B4030D90000112076AFFF452E1EF4230
:04203000E27F002229
:0F2F44007D607C09ED1D70011C144C70F7DFF1EE
:012F5300225B
:102B7D000000000000000000000000000000000048
:102B8D000000000000000000000000000000000038
:102B9D000000000000000000000000000000000028
:102BAD000000000000000000000000000000000018
:102BBD000000000000000000000000000000000008
:0C000600750D04750E1BD50EFDD50DFA0E
:0100120022CB
:102EBF009001387420F0E4900137F07B017A0179AA
:062ECF00377F03021DE045
:0E2C67009001E812097E7F007E007D007C0057
:102C75009001E412097E9001E8E0FCA3E0FDA3E0E9
:102C8500FEA3E0FF9001E4E0F8A3E0F9A3E0FAA3D6
:102C9500E0FB120324600740059001E480039001E6
:0D2CA500E8E0FCA3E0FDA3E0FEA3E0FF22B9
:102B2900E0FCA3E0FDA3E0FEA3E0FF9001E81209A9
:092B39007E7F007E007D807C3F60
:102B42009001E412097E9001E8E0FCA3E0FDA3E01D
:102B5200FEA3E0FF9001E4E0F8A3E0F9A3E0FAA30A
:102B6200E0FB12032450059001E480039001E8E0A9
:0B2B7200FCA3E0FDA3E0FEA3E0FF22B7
:061A51009001B712097EAE
:101A57009001BBE0FCA3E0FDA3E0FEA3E0FFA3E051
:101A6700F8A3E0F9A3E0FAA3E0FB12017E9001D806
:101A770012097EE4FBFA797078429001B7E0FCA383
:101A8700E0FDA3E0FEA3E0FF120287C004C005C08B
:101A970006C0079001E812098A40000000D007D06D
:101AA70006D005D004122870E4FBFA798078BF12BB
:101AB700008D120016A804A905AA06AB07E4FFFECD
:101AC7007D807C3F1200899001D8E0F8A3E0F9A35C
:101AD700E0FAA3E0FB12017E9001DC12097E90017F
:101AE700D8E0F8A3E0F9A3E0FAA3E0FB9001BFE098
:101AF700FCA3E0FDA3E0FEA3E0FF1200899001E054
:101B070012097E9001E812098A43B400009001B7D8
:101B1700E0FCA3E0FDA3E0FEA3E0FF122870900124
:101B2700B712097E9001BB122B29122C679001BBBB
:101B370012097E9001BF122B29122C679001BF1248
:101B4700097EE4FFFEFDFC9001B7E0F8A3E0F9A3EE
:101B5700E0FAA3E0FB1203244033E4FFFE7D707C30
:101B6700429001B7E0F8A3E0F9A3E0FAA3E0FB1283
:101B7700032450199001D8E0FCA3E0FDA3E0FEA3E5
:101B8700E0FF9001CC12097E9001DC804BE4FFFE60
:101B97007D707C429001B7E0F8A3E0F9A3E0FAA3D7
:101BA700E0FB120324404FE4FFFE7DF07C429001EE
:101BB700B7E0F8A3E0F9A3E0FAA3E0FB120324508F
:101BC700359001DCE0FCA3E0FDA3E0FEA3E0FF907D
:101BD70001CC12097E9001D8E0FCA3E0FDA3E0FE52
:101BE700A3E0FF9001D012097E9001D412098A0068
:101BF700000000021D2FE4FFFE7DF07C429001B73C
:101C0700E0F8A3E0F9A3E0FAA3E0FB120324403BCA
:101C1700E4FFFE7D347C439001B7E0F8A3E0F9A32D
:101C2700E0FAA3E0FB12032450219001CC12098AA9
:101C3700000000009001D8E0FCA3E0FDA3E0FEA3B4
:101C4700E0FF9001D012097E021D1BE4FFFE7D34E8
:101C57007C439001B7E0F8A3E0F9A3E0FAA3E0FB27
:101C6700120324403AE4FFFE7D707C439001B7E005
:101C7700F8A3E0F9A3E0FAA3E0FB120324502090B5
:101C870001CC12098A000000009001DCE0FCA3E00F
:101C9700FDA3E0FEA3E0FF9001D012097E8052E48D
:101CA700FFFE7D707C439001B7E0F8A3E0F9A3E065
:101CB700FAA3E0FB120324403DE4FFFE7D967C433C
:101CC7009001B7E0F8A3E0F9A3E0FAA3E0FB120361
:101CD7002450239001DCE0FCA3E0FDA3E0FEA3E099
:101CE700FF9001CC12097E9001D012098A000000F2
:101CF700009001D880219001D8E0FCA3E0FDA3E08B
:101D0700FEA3E0FF9001CC12097E9001D012098A50
:101D1700000000009001DCE0FCA3E0FDA3E0FEA3CF
:101D2700E0FF9001D412097E9001E0E0FCA3E0FD02
:101D3700A3E0FEA3E0FF9001CCE0F8A3E0F9A3E065
:101D4700FAA3E0FB12008DE4FBFA797F78431201D6
:101D57007E1203DB9001C3E0FBA3E0FAA3E0F9EFF7
:101D67001207979001E0E0FCA3E0FDA3E0FEA3E0EB
:101D7700FF9001D0E0F8A3E0F9A3E0FAA3E0FB129B
:101D8700008DE4FBFA797F784312017E1203DB9022
:101D970001C6E0FBA3E0FAA3E0F9EF120797900171
:101DA700E0E0FCA3E0FDA3E0FEA3E0FF9001D4E0A8
:101DB700F8A3E0F9A3E0FAA3E0FB12008DE4FBFA35
:101DC700797F784312017E1203DB9001C9E0FBA300
:091DD700E0FAA3E0F9EF0207971E
:10279A002453F974013EFA9001B17401F0A3EAF0EE
:1027AA00A3E9F090013CE0FCA3E0FDA3E0FEA3E076
:0127BA00FF1F
:1027BB00C004C005C006C0079001A9E0FCA3E0FD62
:1027CB00A3E0FEA3E0FF9001BB12097E9001ADE0F8
:1027DB00FCA3E0FDA3E0FEA3E0FF9001BF12097E86
:1027EB009001C37401F0A37401F0A374B4F0A3744B
:1027FB0001F0A37401F0A374B5F0A37401F0A374FA
:10280B0001F0A374B6F0D007D006D005D004121A8D
:10281B00519001B5E0FFE4FCFDFE78081208F5C00D
:10282B0004C005C006C0079001B4E0FFE4FCFDFE48
:10283B0078101208F5D003D002D001D000EF4BFB7B
:10284B00EE4AFAED49F9EC48F89001B6E0FFEB4F90
:10285B00FFEAFEE9FDE8FC9001B1E0FBA3E0FAA37F
:05286B00E0F90209087C
:102E4300900135EEF0A3EFF0122EBF900135E0FFB5
:0B2E5300A3E0900206CFF0A3EFF022F6
:100A8800ED30E71FD2B500000000000000000000B4
:100A9800000000000000000000000000000000C28C
:100AA800B5801DD2B5000000000000C2B5000000EE
:100AB800000000000000000000000000000000002E
:100AC800000000000000ED25E0FD30E71FD2B50072
:100AD800000000000000000000000000000000000E
:100AE8000000000000000000C2B5801DD2B5000063
:100AF80000000000C2B50000000000000000000077
:100B0800000000000000000000000000000000EDF0
:100B180025E0FD30E71FD2B500000000000000000E
:100B280000000000000000000000000000000000BD
:100B380000C2B5801DD2B5000000000000C2B5009B
:100B4800000000000000000000000000000000009D
:100B58000000000000000000ED25E0FD30E71FD296
:100B6800B5000000000000000000000000000000C8
:100B780000000000000000000000C2B5801DD2B5D2
:100B8800000000000000C2B50000000000000000E6
:100B9800000000000000000000000000000000004D
:100BA80000ED25E0FD30E71FD2B500000000000091
:100BB800000000000000000000000000000000002D
:100BC800000000C2B5801DD2B5000000000000C2C0
:100BD800B500000000000000000000000000000058
:100BE80000000000000000000000ED25E0FD30E7F7
:100BF8001FD2B50000000000000000000000000047
:100C0800000000000000000000000000C2B5801DC8
:100C1800D2B5000000000000C2B5000000000000CE
:100C280000000000000000000000000000000000BC
:100C3800000000ED25E0FD30E71FD2B50000000000
:100C4800000000000000000000000000000000009C
:100C58000000000000C2B5801DD2B50000000000F1
:100C680000C2B50000000000000000000000000005
:100C7800000000000000000000000000ED25E0304A
:100C8800E71FD2B5000000000000000000000000CF
:100C980000000000000000000000000000C2B58055
:100CA8001DD2B5000000000000C2B5000000000021
:100CB800000000000000000000000000000000002C
:100CC80000000000EF30E71FD2B500000000000070
:100CD800000000000000000000000000000000000C
:100CE800000000C2B5801DD2B5000000000000C29F
:100CF800B500000000000000000000000000000037
:100D080000000000000000000000EF25E0FF30E7D1
:100D18001FD2B50000000000000000000000000025
:100D2800000000000000000000000000C2B5801DA7
:100D3800D2B5000000000000C2B5000000000000AD
:100D4800000000000000000000000000000000009B
:100D5800000000EF25E0FF30E71FD2B500000000DB
:100D6800000000000000000000000000000000007B
:100D78000000000000C2B5801DD2B50000000000D0
:100D880000C2B500000000000000000000000000E4
:100D9800000000000000000000000000EF25E0FF58
:100DA80030E71FD2B500000000000000000000007E
:100DB8000000000000000000000000000000C2B5B4
:100DC800801DD2B5000000000000C2B50000000080
:100DD800000000000000000000000000000000000B
:100DE8000000000000EF25E0FF30E71FD2B500004B
:100DF80000000000000000000000000000000000EB
:100E080000000000000000C2B5801DD2B50000003F
:100E1800000000C2B5000000000000000000000053
:100E28000000000000000000000000000000EF25A6
:100E3800E0FF30E71FD2B50000000000000000000E
:100E4800000000000000000000000000000000009A
:100E5800C2B5801DD2B5000000000000C2B5000078
:100E6800000000000000000000000000000000007A
:100E780000000000000000EF25E0FF30E71FD2B5BA
:100E8800000000000000000000000000000000005A
:100E9800000000000000000000C2B5801DD2B500AF
:100EA8000000000000C2B5000000000000000000C3
:100EB800000000000000000000000000000000002A
:100EC800EF25E030E71FD2B5000000000000000069
:100ED800000000000000000000000000000000000A
:100EE80000C2B5801DD2B5000000000000C2B500E8
:100EF80000000000000000000000000000000000EA
:100F08000000000000000000EB30E71FD2B5000031
:100F180000000000000000000000000000000000C9
:100F280000000000000000C2B5801DD2B50000001E
:100F3800000000C2B5000000000000000000000032
:100F48000000000000000000000000000000EB2589
:100F5800E0FB30E71FD2B5000000000000000000F1
:100F68000000000000000000000000000000000079
:100F7800C2B5801DD2B5000000000000C2B5000057
:100F88000000000000000000000000000000000059
:100F980000000000000000EB25E0FB30E71FD2B5A1
:100FA8000000000000000000000000000000000039
:100FB800000000000000000000C2B5801DD2B5008E
:100FC8000000000000C2B5000000000000000000A2
:100FD8000000000000000000000000000000000009
:100FE800EB25E0FB30E71FD2B50000000000000051
:100FF80000000000000000000000000000000000E9
:101008000000C2B5801DD2B5000000000000C2B5C6
:1010180000000000000000000000000000000000C8
:10102800000000000000000000EB25E0FB30E71F97
:10103800D2B5000000000000000000000000000021
:101048000000000000000000000000C2B5801DD2B2
:10105800B5000000000000C2B5000000000000005C
:101068000000000000000000000000000000000078
:101078000000EB25E0FB30E71FD2B50000000000C0
:101088000000000000000000000000000000000058
:1010980000000000C2B5801DD2B5000000000000AD
:1010A800C2B50000000000000000000000000000C1
:1010B8000000000000000000000000EB25E0FB300D
:1010C800E71FD2B50000000000000000000000008B
:1010D80000000000000000000000000000C2B58011
:1010E8001DD2B5000000000000C2B50000000000DD
:1010F80000000000000000000000000000000000E8
:1011080000000000EB25E030E71FD2B5000000002A
:1011180000000000000000000000000000000000C7
:101128000000000000C2B5801DD2B500000000001C
:1011380000C2B50000000000000000000000000030
:0D1148000000000000000000000000002278
:102A570090013DEEF0A3EFF0A3ECF0A3EDF0AE0391
:102A6700E4900144F0A3F0900206E0FCA3E0FD909F
:102A77000144E0FAA3E0FBC39DEA9C504490013D6A
:102A8700E0FCA3E0FDC3EB9DEA9C401EA3E0FCA392
:102A9700E0FD900145E09D900144E09C500CAF069D
:102AA700900142E0FDA3E0FB8004E4FBFDFF120A76
:102AB70088900145E004F070AE900144E004F08096
:042AC700A60200560D
:0C2ACB00900139EEF0A3EFF0AE03A90576
:102AD700E490013EF0A3F0900206E0FCA3E0FD9035
:102AE700013EE0FAA3E0FBC39DEA9C503290013916
:102AF700E0FCA3E0FDEBB5050FEAB5040BAF01ADB4
:102B07000690013DE0FB8004E4FBFDFF120A88907C
:102B1700013FE004F070C090013EE004F080B8028D
:022B2700005656
:0615D80090013C12097EA7
:1015DE00E4900147F0A3F0900151F0A37414F07859
:1015EE00537C017D017BFF7A2B797D7E007F50122B
:1015FE00072B900146E060030216D7A3F0A3F090EC
:10160E000151E0FCA3E0FD900147E0FEA3E0C39D85
:10161E00EC6480F8EE64809840030216ACEC120382
:10162E00A2C004C005C006C007900147E0FCA3E0BD
:10163E00FDEC1203A2D003D002D001D0001202871B
:10164E007BDB7A0F79C9783F12017E1223A3A8049F
:10165E00A905AA06AB07E4FFFE7D807C3F12008938
:10166E009001AD12097E900140E0FCA3E0FDA3E0E5
:10167E00FEA3E0FF9001A912097E900147E0FEA3B0
:10168E00E07802C333CE33CED8F912279A900148B0
:10169E00E004F07006900147E004F002160D900190
:1016AE0051E0FEA3E0FF900144E0FCA3E0FDC39FE8
:1016BE00FFEC9ECF2401CF3400900149F0A3EFF050
:1016CE00A3ECF0A3EDF002197E900146E0640160F8
:1016DE00030217C6A3F0A3F0900151E0FCA3E0FDB6
:1016EE00900147E0FEA3E0C39DEC6480F8EE6480B9
:1016FE00984003021799EC1203A2C004C005C0065D
:10170E00C007900147E0FCA3E0FDEC1203A2D0035A
:10171E00D002D001D0001202877BDB7A0F79C97814
:10172E003F12017E1223A3A804A905AA06AB07E463
:10173E00FFFE7D807C3F1200899001AD12097E90E4
:10174E000140E0FCA3E0FDA3E0FEA3E0FF9001A9B1
:10175E0012097E900147E0FEA3E0FF900151E0FCEC
:10176E00A3E0C39FFFEC9EFEEF7802C333CE33CED1
:10177E00D8F9244FF9740112279F900148E004F024
:10178E007006900147E004F00216E6900144E0FE78
:10179E00A3E0FF900149EEF0A3EFF0900151E0FCC1
:1017AE00A3E0FDEF2DFFEE3CCF24FFCF34FF9001E1
:1017BE004BF0A3EFF002197E900146E06402600345
:0317CE0002197E7F
:1017D100900151E0FEA3E0FF7C007D021207A99079
:1017E10001A3EEF0A3EFF0E4900147F0A3F0900124
:1017F100A3E0FEA3E0FF900147E0FCA3E0C39FEE5E
:101801006480F8EC6480984003021896900151E0DE
:10181100FCA3E0FDEC1203A2C004C005C006C00792
:10182100900147E0FCA3E0FDEC1203A2D003D0023B
:10183100D001D0001202877BDB7A0F79C9783F1281
:10184100017E1223A3A804A905AA06AB07E4FFFEA3
:101851007D807C3F1200899001AD12097E9001408C
:10186100E0FCA3E0FDA3E0FEA3E0FF9001A91209C3
:101871007E900147E0FEA3E07802C333CE33CED899
:10188100F912279A900148E004F07006900147E0B0
:1018910004F00217EF9001A3E0FFA3E0900147CF0E
:1018A100F0A3EFF0900151E0FCA3E0FD900147E0CF
:1018B100FEA3E0C39DEC6480F8EE648098400302CF
:1018C1001958EC1203A2C004C005C006C00790015C
:1018D10047E0FCA3E0FDEC1203A2D003D002D0014B
:1018E100D0001202877BDB7A0F79C9783F12017E23
:1018F1001223A3A804A905AA06AB07E4FFFE7D8075
:101901007C3F1200899001AD12097E900140E0FCFC
:10191100A3E0FDA3E0FEA3E0FF9001A912097E90E0
:101921000147E0FEA3E0FF900151E0FCA3E0C39F6B
:10193100FFEC9EFEEF7802C333CE33CED8F9244FAD
:10194100F9740112279F900148E004F0700690019C
:1019510047E004F00218A59001A3E0FAA3E0FB9090
:101961000144E0FCA3E0FDC39BFEEC9A900149F029
:0D197100A3CEF0EB2DFEEA3CA3F0A3CEF0D8
:10197E00E4900147F0A3F0900206E0FEA3E0FF9092
:10198E000147E0FCA3E0FDC39FEC9E4003021A4E0C
:10199E00A3E0FEA3E0FFC3ED9FEE6480F8EC64804D
:1019AE00985003021A36A3E0FAA3E0FBD3ED9BEAAC
:1019BE006480F8EC648098506F900147A3E0C39F59
:1019CE00FFEC9EFEEF7802C333CE33CED8F924530C
:1019DE00F58274013EF583E0FCA3E0FDA3E0FEA3D7
:1019EE00E0FF90014D12097E90014DE0FCA3E0FD59
:1019FE00A3E0FEA3E0FF78101208E2C00790014DAD
:101A0E00E0FCA3E0FDA3E0FEA3E0FF78081208E2ED
:101A1E00AD07C00590014DE0FCA3A3E0FEA3E0FFDF
:101A2E00AB07D005D0078004E4FBFDFF120A8890B7
:101A3E000148E004F07006900147E004F0021985B9
:031A4E000200563D
:05005600C2B502000626
:102E1A00900206E0FFA3E0900139CFF0A3EFF09013
:102E2A00013974FFF5F01207DF45F06009E4FBFD94
:092E3A00FF120A8880E90200562B
:03000300022CB21A
:102CB200C0E0C0F0C083C082C0D075D000C000C0E8
:102CC20001C002C003C004C005C006C007900208CC
:102CD2007401F012005ED007D006D005D004D003F4
:102CE200D002D001D000D0D0D082D083D0F0D0E0BA
:012CF20032AF
:03001300022ED5E5
:102ED500C0E0C083C0829002087402F0D082D08323
:032EE500D0E03208
:03005300022EE892
:102EE800C0E0C083C0829002087403F0D082D0830F
:032EF800D0E032F5
:03005B00022EFB77
:102EFB00C0E0C083C0829002087404F0D082D083FB
:032F0B00D0E032E1
:03008300022F0E3B
:102F0E00C0E0C083C0829002087405F0D082D083E6
:032F1E00D0E032CE
:102DB600EFD3940140037FFF22EF7010C289120700
:102DC600517004C2888002D2887F0022EFB40110BD
:102DD600C28B1207517004C28A8002D28A7F0022F7
:032DE6007FFF224A
:102CF300EFD3940140037FFF22EDD3940340037F7E
:102D0300FF22EF7004C2A88002D2A8ED700553B76A
:102D1300FEC2B8EDB4010553B7FED2B8EDB4020557
:102D230043B701C2B8EDB4030543B701D2B87F007E
:012D3300227D
:102D3400EFD3940140037FFF22EDD3940340037F3C
:102D4400FF22EF7004C2AA8002D2AAED700553B725
:102D5400FBC2BAEDB4010553B7FBD2BAEDB4020518
:102D640043B704C2BAEDB4030543B704D2BA7F0033
:012D7400223C
:102E9100EFD3940140037FFF22EFC454F0FFE58F8D
:082EA10054EF4FF58FE4FF220E
:102E7800EFD3940140037FFF22EFC43354E0FFE512
:092E88008F54DF4FF58FE4FF22A7
:102E5E00EFD3940140037FFF22EFC4333354C0FFFE
:0A2E6E00E58F54BF4FF58FE4FF22FB
:0B21CA0090013EEBF0A3EAF0A3E9F067
:1021D500EF64016003022358900000F0A3F0A3F020
:1021E500A3F0A3F0FF7E80900085E4F0A3DEFCE47D
:1021F500FF7E80900005E4F0A3DEFC7E0090013EAA
:10220500E0FBA3E0FAA3E0F9120751FFE598543F7C
:102215004FF598EF64C06008EF6440600302230344
:1022250090000212094E7F807E8D7D5B7C00120836
:102235003190014112097EE4FFFE7D01FC900141D0
:10224500E0F8A3E0F9A3E0FAA3E0FBC31208D1404C
:10225500037FFF22900141E0F8A3E0F9A3E0FAA390
:10226500E0FBC3E49BFFE49AFE740199FDE498FC4E
:1022750090014112097E90013EE0FBA3E0FAA3E044
:10228500F990000112076AFB64017038C28E538E03
:10229500FE5389BF5389CF438E40900141E0FCA393
:1022A500E0FDA3E0FEA3E0FF78081208E28F8D9021
:1022B5000141A3A3A3E0F58BC2AB5389BF538FFDA7
:1022C500D28E8073EB64027032538EEF438E0153CE
:1022D5008EF7438E04900141E0FCA3E0FDA3E0FEF0
:1022E500A3E0FF78081208E28FD6900141A3A3A3CB
:1022F500E0F5D753AFFB438E10803C7FFF22900162
:102305003EE0FBA3E0FAA3E0F9120751FF7013903A
:10231500000812076AB40105438E20801A538EDF28
:102325008015EFB4801190000812076AB4010543C7
:102335008780800353877F90013EE0FBA3E0FAA3EB
:10234500E0F990000712076A7004C29C8002D29CD3
:052355007F00227FFF64
:01235A002260
:0F2F54008F999000027401F0900002E070FA2251
:102F2100120751FF600C122F54740129F9E43AFA87
:032F310080EE220D
:052F7100AE07022F5421
:102D7500EFD3940140037FFF22EDD3940340037FFB
:102D8500FF22EF7004C2AC8002D2ACED700553B7E0
:102D9500EFC2BCEDB4010553B7EFD2BCEDB40205EB
:102DA50043B710C2BCEDB4030543B710D2BC7F00D6
:012DB50022FB
:03002300022C1B91
:102C1B00C0E0C083C082C0D075D000C007309827F9
:102C2B00C298900003E0C394804002E4F09000034C
:102C3B00E0FF04F074052FF582E43400F583E59989
:102C4B00F09000047405F0309907C299900002E4EB
:0C2C5B00F0D007D0D0D082D083D0E0327F
:10008600020447E86480F8E933E83360110460F05D
:10009600ED33EC337009E8FCE9FDEAFEEBFF2204E0
:1000A60060DED3EB9FEA9EE99DE8C2E78CF0C2F7DB
:1000B60095F0400CE8CCF8E9CDF9EACEFAEBCFFBA7
:1000C60012041285D0F05804700320D5B3E80470EA
:1000D600075002B2D502045192D5EC0460F7E4CC85
:1000E600C0E0C398F8603B94186008400DD0E0FB70
:1000F600020429E4FBFAC9FC8028E830E406E4C9D6
:10010600FBE4CAFCE830E305E4C9CACBFCE85407C3
:100116006010F8C3E913F9EA13FAEB13FBEC13FCCE
:10012600D8F130F52FC3E49CFCEF9BFFEE9AFEED71
:1001360099FDD0E0FBEF4E4D4C701222DB0302041A
:100146004EEC2CFCEF33FFEE33FEED33FDED30E7E6
:10015600EB020429EF2BFFEE3AFEED39FDD0E0FB72
:1001660050130BBB0003020451ED13FDEE13FEEF1B
:0801760013FFEC13FC02042945
:10017E00EC4D6011E8497017ED33EC3304600DE47B
:10018E00FCFFFEFD22E933E8330470F80204471247
:10019E00041258046009E4CC248150062850090248
:1001AE00045128400302044EC0E0EB4A7044B9806B
:1001BE0006D0E0FB02043DEF4E701CBD8008EBFF45
:1001CE00EAFEE9FD80EBE98DF0A4FEE5F0020267A0
:1001DE00E9CDF9EAFEEBFFEF89F0A4FCE5F0CE895C
:1001EE00F0A42EFFE435F0CD89F0A42DFEE435F019
:1001FE008067EF4E7005BD80D780C3EF8BF0A4AC47
:10020E00F0EE8BF0A42CFCE435F0F8EF8AF0A42C81
:10021E00E5F038FCE433CB8DF0A42CFCE5F03BF894
:10022E00EE8AF0A42CFCE5F038F8E433CF89F0A484
:10023E002CFCE5F038CF3400CE89F0A42FFFE5F08A
:10024E003EFEE433C98DF0A42EFEE5F039CD8AF0E2
:10025E00A42FFFE5F03EFEE43DFD33D0E0FB50075A
:10026E000BBB000F020451EC2CFCEF33FFEE33FE00
:06027E00ED33FD0204292E
:10028400020451EC5D046005E8590470030204475C
:10029400120412580460F6EC4860F2EC7004FDFE9F
:1002A400FF22C860DB2481C85009C398600250064D
:1002B40002044E9850CAF582E9294B4A7005AB8274
:1002C40002043D75F0007C1A7880C3EF9BEE9AED32
:1002D40099400DC3EF9BFFEE9AFEED99FDE842F0C5
:1002E400DC23ACF0D0E0FFD0E0FED0E0FDAB822018
:1002F400E7101BEB60BAEC2CFCEF33FFEE33FEEDA2
:1003040033FD020429E803F830E705C0F075F00076
:10031400EF2FFFEE33FEED33FD40B830E7C280AA85
:1003240074F8CC6480CCC86480C8F58204604FC380
:10033400EB9FF5F0EA9E42F0E99D42F0E89C45F01F
:10034400603C501DE5825FFFE582D313CB5BCBF4A9
:100354002B5582FB50280ABA002409B900200880D2
:100364001DE5825BFBE582D313CF5FCFF4C3132F6C
:100374005582FF50090EBE00050DBD00010CC3EBF4
:100384009FF5F0EA9E42F0E99D42F0E89C45F0605A
:0903940007CC4820E701B3EC227C
:10039D0075F020800E75F010800575F0087D007EDB
:1003AD00007F003392D530D5031208C3EC334010D3
:1003BD00EF33FFEE33FEED33FDEC33FCD5F0ED22E4
:0E03CD00E5F0247EA2D513CC92E7CDCEFF2220
:1003DB00EDD2E7CD33EC3392D524814006E4FFFE1A
:1003EB00FDFC22FCE4CFCECDCC24E0501174FF8079
:1003FB00EDC3CC13CCCD13CDCE13CECF13CF047016
:07040B00F030D5DE0208C34A
:10115500E5082408F582E43401F583E005082290CA
:101165000105300703900108E475F0011209BB027F
:1011750007512000E97F2ED2008018EF540F2490EC
:10118500D43440D4FF30040BEF24BFB41A0050030D
:101195002461FFE50960021509050CE50C700205DF
:1011A5000B30070E900105E475F0011209BBEF0243
:1011B5000797022F717403D2078003E4C207F5086D
:1011C5009001051209D2E4F509F50BF50CE5096066
:1011D500077F2012119880F5750AFFC201C200C26F
:1011E50002C203C205C206C208121164FF700D30A7
:1011F50007057F001211A9AF0CAE0B22B4255FC203
:10120500D5C204121164FF24D0B40A00501A75F037
:101215000A780930D50508B6FF0106C6A426F620CA
:10122500D5047002D20380D924CFB41A00EF50043C
:10123500C2E5D20402149BD20180C6D20080C0D27E
:101245000280BCD2D580BAD20580B47F2012119815
:101255002002077401B5090040F1121155FF121162
:10126500980211D2D208D2068095121155FB12119F
:1012750055FA121155F94A4B700679997A157BFF83
:1012850020022EE509602A7E008E827583001207F2
:101295006A60060EEE650A70F0C2D5EBC0E0EAC0E2
:1012A500E0E9C0E0EE1214FCD0E0F9D0E0FAD0E0BD
:1012B500FB120751FF60AAEBC0E0EAC0E0E9C0E01D
:1012C500121198D0E02401F9D0E03400FAD0E0FB07
:1012D500E50A0460DCD50AD98087D20280A21214FF
:1012E500DE60F7E50A70010412045CA90A600DE5E9
:1012F5000A600914F50A121586EF60F3EA30E70271
:10130500F404C3995079EAF4250A0430E701E404AA
:10131500F50A800D1214DE60C1EA050A250A1204D9
:101325005CEA900134F030E701E4250A04D50A04AB
:10133500200501141214FCE4C0E012158690013456
:10134500E0601320E70714F0121180802204F0D02A
:10135500E014C0E07F00121180E50A6007121177E2
:10136500150A800B300503121177D0E00211D2D097
:10137500E00480C41214DE609EE50A0412045C9049
:101385000134EAF0E50A2005026001042404121480
:01139500FC5B
:1013960074FF04C0E0121586121180E50A200502CA
:1013A6006003121177D0E0B50AE87F4512118A90E2
:1013B6000134E07F2B30E7047F2DF404C0E01211E6
:1013C60098D0E075F00A84C0F0121181D0E01211B5
:1013D600810211D2791080027908C206C2088008FB
:1013E600D2D5790A8004790AC2D5E50A047002F5D5
:1013F6000AE4FAFDFEFF121155FC7B0820011312C8
:101406001155FD7B1030000A121155FE121155FFC1
:101416007B20EC3382D592D55013C3E43000069F6F
:10142600FFE49EFEE42001039DFDE49CFCE4CBF872
:10143600C201EC700CCFCECDCCE824F8F870F38066
:1014460017C3EF33FFEE33FEED33FDEC33FCEB3326
:10145600FB994002FB0FD8E9EB300105F8D0E0C458
:1014660048B201C0E00AEC4D4E4F78207B0070C2B6
:10147600EAB50A0040BCC0E01214FED0F0D0E0206D
:101486000104C4C0E0C4B201C0F0121181D0F0D58D
:10149600F0EB0211D21209DB126F5313DA58124025
:1014A6004C123C4213DE4F13E64413E649125543F1
:1014B60013EC5513194613794512E34715B9501223
:1014C600442D12482E126B2B124C2312692015A2A2
:1014D6002A12044800001263E50AB4FF03750A06DF
:1014E600121155FC121155FD121155FE121155FF20
:1014F60090012D020499790AA2D52003143005091A
:10150600B910020404B9080104A2D520060250014C
:10151600042002689202B509005034C0E07F2030F2
:1015260003197F30A20272067205500F121555C2BA
:1015360002C206C205C2087F30800F300503E9C02B
:10154600E0121198300503D0E0F9D0E0B509CC30AF
:1015560005177F30B9100C1211987F583004077F99
:10156600788003B908031211983002057F2D021105
:10157600987F202008F87F2B2006F322920280CF46
:101586007F00B40700500B242DF582E43401F58367
:10159600E0FF22286E756C6C2900D20112115530BD
:1015A60001F8C201780930D50108F60212042D505F
:1015B6004349581211552403B405004001E490151F
:1015C600B493121189743A121189D203750904026F
:0215D60013DA26
:0D001600ED33EC3360065004EC6480FC22F6
:10235B003A70FA83BCAAE9E43E81E0F8BF9DE9E656
:10236B003F80000039283C1ABB9969663DA335E3D1
:10237B00BF255DE73FC90FDB418DDBCCC44936EE92
:10238B0045C9913FC5B0F83D3F800000C317F534F8
:10239B00452FFA73C60AFDDD12246404A2E19209EB
:1023AB001420E01590235B740412059E80301224D8
:1023BB006430E102B20920E0EBA883A9829001A569
:1023CB0012097E8982888390236F740412059E857F
:1023DB0082F09001A512093285F08212017EED4C3C
:1023EB006007300904EC6480FC22122464C0E0A86E
:1023FB0083A9829001A512097E89828883902393F9
:10240B00740312059E8582F09001A512093285F0A6
:10241B008212017E9001A5E0CCF0A3E0CDF0A3E009
:10242B00CEF0A3E0CFF0902383740312059ED082ED
:10243B008582F09001A512093285F082E58230E0A9
:10244B0007120287B2098096EFCBFFEECAFEEDC9E9
:10245B00FDECC8FC1202878085ED33EC547FCC3346
:10246B00920924605007D0E0D0E00204477B837AC6
:10247B00F97922783E12017EEDF933ECF8332481A1
:10248B005011EFFBEEFA1203DB12039DECB2E7FCEB
:10249B0012008DED33EC33602F2403F8C313FCEDE6
:1024AB0092E7FDE82481E4501FECF8EDF9EEFAEF2A
:1024BB00FB1203DBEF04C2E0FCF5821203A7ECB2C4
:1024CB00E7FC12008DE58203FAED33EC3360071461
:0824DB0013FCED92E7FDEA227B
:102870009001E412097EE4FFFEFDFC9001E8E0F81F
:10288000A3E0F9A3E0FAA3E0FB1203247005FFFE26
:10289000FDFC229001E8E0F8A3E0F9A3E0FAA3E050
:1028A000FB9001E4E0FCA3E0FDA3E0FEA3E0FF1247
:1028B00002871203DB9001EC12097E9001E4E0FC38
:1028C000A3E0FDA3E0FEA3E0FFECC0E0EDC0E0EE7E
:1028D000C0E0EFC0E09001ECE0FCA3E0FDA3E0FE6F
:1028E000A3E0FFEC12039D9001E8E0F8A3E0F9A358
:1028F000E0FAA3E0FB12017EC8ECC8C9EDC9CAEE3C
:10290000CACBEFCBD0E0FFD0E0FED0E0FDD0E0FCC2
:102910001200899001E412097E9001E4E0FCA3E03A
:08292000FDA3E0FEA3E0FF228D
:10041200E9D2E7C933E833F892D5EDD2E7CD33EC30
:0704220033FC5002B2D522A9
:10042900EC30E7100FBF000C0EBE00080DBD000434
:100439000BEB6014A2D5EB13FCED92E7FD2274FFE0
:10044900FCFDFEFF22E480F8A2D574FF13FC7D8039
:03045900E480EF4D
:10045C00F920E73624F950037907E4F42402FBE58C
:10046C0082158270021583DBF6E024FB501BE960D9
:10047C0014E4F0E582158270021583E004F0B40AEE
:0D048C0008E4F0D9EE7401F00A22C2D52276
:10049900ED33EC3392D5FA602AB4FF33EDC2E77B32
:1004A900FF60067A0479BEE4227A0479C720D5046C
:1004B9007A0479C2224E614E002B494E46002D49DD
:1004C9004E4600E47A08F0A3DAFC7B00740722C0E8
:1004D90083C082ECC0E0EDC0E0EEC0E0EFC0E0EA2E
:1004E90075F010A4CAABF075F04DA42BFBE435F000
:1004F900FCEA2410FAEB34C5FBEC34D9FCEDC2E775
:10050900FF75F056A4F42411C5F0F434C58FF0A496
:100519002AE5F03BE43CF020E71412061BD0E0FF8B
:10052900D0E0FED0E0FDD0E0FC1202878014F40494
:1005390012061BD0E0FFD0E0FED0E0FDD0E0FC12B7
:10054900017ED082D083E0FAEDD2E7CD33EC3324BB
:1005590082FBE4C3CF33CFCE33CECD33CD33DBF300
:100569007B0775F00A846004F0A31B0AE5F0F0A389
:100579008FF0740AA4FFACF08EF0740AA42CFEACC0
:10058900F050010C8DF0740AA42CFDE435F0F0A3B1
:05059900DBDE74072207
:10059E00C0E0EFFBEEFAEDF9ECF812017ED0E0F5DB
:1005AE00F0EFFBEEFAEDF9ECF8120922A3A3A3A3E8
:1005BE00E8C0E0E9C0E0EAC0E0EBC0E0C0F0120144
:1005CE007E12093EA3A3A3A312008DD0F0D0E0FBB0
:0D05DE00D0E0FAD0E0F9D0E0F8D5F0D4225A
:1005EB003F8000004120000042C80000447A000018
:1005FB00461C400047C35000497424004B1896809A
:10060B004CBEBC205A0E1BCA6753C21C749DC5AE90
:10061B00FB60065407601C2323120649EB54386019
:10062B000912063512064412017EECF8EDF9EEFACA
:10063B00EFCB22EB12064480F1543803241C9005B7
:10064B00EBFE93FC0EEE93FD0EEE930ECE93FF227C
:030000000229CB07
:0C29CB00787FE4F6D8FD758121022A1205
:10065B00E709F608DFFA8046E709F208DFFA803E81
:10066B0088828C83E709F0A3DFFA8032E309F6086E
:10067B00DFFA8078E309F208DFFA807088828C83D6
:10068B00E309F0A3DFFA806489828A83E0A3F6088A
:10069B00DFFA805889828A83E0A3F208DFFA804C64
:1006AB0080D280FA80C680D4806980F2803380103B
:1006BB0080A680EA809A80A880DA80E280CA8033A4
:1006CB0089828A83ECFAE493A3C8C582C8CCC5831C
:1006DB00CCF0A3C8C582C8CCC583CCDFE9DEE780EC
:1006EB000D89828A83E493A3F608DFF9ECFAA9F06B
:1006FB00EDFB2289828A83ECFAE0A3C8C582C8CCC1
:10070B00C583CCF0A3C8C582C8CCC583CCDFEADED9
:10071B00E880DB89828A83E493A3F208DFF980CC3B
:10072B0088F0EF60010E4E60C388F0ED2402B40434
:10073B000050B9F582EB2402B4040050AF232345DB
:06074B0082239006AB734F
:10075100BB010689828A83E0225002E722BBFE02A6
:09076100E32289828A83E49322D9
:10076A00BB010CE58229F582E5833AF583E0225044
:10077A0006E92582F8E622BBFE06E92582F8E2228E
:0D078A00E58229F582E5833AF583E49322A8
:10079700BB010689828A83F0225002F722BBFE0141
:0207A700F3223B
:1007A900C2D5EC30E709B2D5E4C39DFDE49CFCEE6B
:1007B90030E715B2D5E4C39FFFE49EFE120A01C3D8
:1007C900E49DFDE49CFC8003120A0130D507C3E4D3
:0607D9009FFFE49EFE22DA
:1007DF00A3F8E0C5F025F0F0E582158270021583CD
:0607EF00E0C838F0E8222A
:1007F50075F008758200EF2FFFEE33FECD33CDCCBB
:1008050033CCC58233C5829BED9AEC99E58298403D
:100815000CF582EE9BFEED9AFDEC99FC0FD5F0D61A
:10082500E4CEFBE4CDFAE4CCF9A88222B800C1B944
:100835000059BA002DEC8BF084CFCECDFCE5F0CB82
:10084500F97818EF2FFFEE33FEED33FDEC33FCEBBB
:1008550033FB10D703994004EB99FB0FD8E5E4F976
:10086500FA227818EF2FFFEE33FEED33FDEC33FC63
:10087500C933C910D7059BE99A4007EC9BFCE99A57
:10088500F90FD8E0E4C9FAE4CCFB2275F010EF2F9C
:10089500FFEE33FEED33FDCC33CCC833C810D7079C
:1008A5009BEC9AE899400AED9BFDEC9AFCE899F8D7
:0E08B5000FD5F0DAE4CDFBE4CCFAE4C8F9226A
:0E08C300C3E49FFFE49EFEE49DFDE49CFC2246
:1008D100EB9FF5F0EA9E42F0E99D42F0E89C45F07D
:0108E10022F4
:1008E200E8600FECC313FCED13FDEE13FEEF13FFF4
:0308F200D8F12218
:1008F500E8600FEFC333FFEE33FEED33FDEC33FC61
:03090500D8F12204
:10090800BB010789828A8302097E5005E9F8020A39
:0A09180070BBFE05E9F8020A7C221C
:10092200E493FC740193FD740293FE740393FF221B
:0C093200E0F8A3E0F9A3E0FAA3E0FB2248
:10093E00E493F8740193F9740293FA740393FB220F
:10094E00BB010DE58229F582E5833AF58302093272
:10095E005007E92582F8020A56BBFE07E92582F800
:10096E00020A63E58229F582E5833AF58302093EA0
:0C097E00ECF0A3EDF0A3EEF0A3EFF022EC
:10098A00A8828583F0D083D0821209A11209A1120C
:10099A0009A11209A1E473E493A3C583C5F0C58331
:1009AA00C8C582C8F0A3C583C5F0C583C8C582C8B7
:0109BA00221A
:1009BB00F8E0FBA3A3E0F925F0F0E58215827002C5
:0709CB001583E0FA38F02269
:0909D200EBF0A3EAF0A3E9F02226
:1009DB00D083D082F8E4937012740193700DA3A3AB
:1009EB0093F8740193F5828883E4737402936860BF
:0609FB00EFA3A3A380DFBF
:1029D700022928E493A3F8E493A34003F68001F2C5
:1029E70008DFF48029E493A3F85407240CC8C33301
:1029F700C4540F4420C8834004F456800146F6DFD0
:102A0700E4800B0102040810204080900026E47E39
:102A1700019360BCA3FF543F30E509541FFEE493C4
:102A2700A360010ECF54C025E060A840B8E493A38B
:102A3700FAE493A3F8E493A3C8C582C8CAC583CAB6
:102A4700F0A3C8C582C8CAC583CADFE9DEE780BE6E
:0100510000AE
:100A0100BC000BBE0029EF8DF084FFADF022E4CCD9
:100A1100F875F008EF2FFFEE33FEEC33FCEE9DECA2
:100A2100984005FCEE9DFE0FD5F0E9E4CEFD22EDE8
:100A3100F8F5F0EE8420D21CFEADF075F008EF2F32
:100A4100FFED33FD4007985006D5F0F222C398FD23
:050A51000FD5F0EA22C0
:0D0A5600E6FB08E6F908E6FA08E6CBF82210
:0D0A6300E2FB08E2F908E2FA08E2CBF82213
:0C0A7000ECF608EDF608EEF608EFF622B2
:0C0A7C00ECF208EDF208EEF208EFF222B6
:00000001FF
